:1000000009C021C089C01FC01EC01DC01CC01BC0AC
:100010001AC019C011241FBECFE9CDBF10E0A0E661
:10002000B0E0E8E7F3E002C005900D92A836B10712
:10003000D9F720E0A8E6B0E001C01D92A437B207CE
:10004000E1F7A7D097C1DCCF982F26B3207180E0CD
:1000500030E046B3407150E04217530749F4981717
:1000600030F043E24A95F1F700C08F5FF2CF80E0B5
:1000700008950F931F93CF93DF93D8E00C2F10E0D8
:1000800015950795C02F8BE0DFDF833010F48FEFDD
:100090000BC085E1D9DF8330D0F38C3010F0C02F56
:1000A000C068D15059F78C2FDF91CF911F910F91DC
:1000B0000895809363007093650060936600E0E6A6
:1000C000F0E09191F894C29827E22A95F1F700C0E8
:1000D00088E090FF03C00000C29A02C0C29800C02E
:1000E00026E22A95F1F79695815099F700C000C055
:1000F000C29A87E28A95F1F7789420E0E836F20711
:1001000001F7809173008A30E0F3109273008091C0
:100110006B008034A1F208951F920F920FB60F92D8
:1001200011242F933F934F938F939F93EF93FF93BC
:10013000B39923C04BE04A95F1F700C038E0822F15
:1001400090E095958795282F46E24A95F1F70000B3
:10015000B3992068315099F7E091730081E08E0FD8
:1001600080937300F0E0E859FF4F20838091730083
:100170008B3018F08AE080937300FF91EF919F918C
:100180008F914F913F912F910F900FBE0F901F9025
:10019000189580E888B987E084BB83E085BD7894B2
:1001A00081E090E0BAD0182F82E090E0BDD0EC0161
:1001B0001F3108F01AE0C49AC29ABA9A8BB78062CB
:1001C0008BBFAB9A809173008A30E0F3109273007A
:1001D000612F70E086E06DDF60E070E088E469DF49
:1001E000809173008A30E0F31092730080916D006B
:1001F000E0906E00F12CF82AEC16FD0610F4C1E038
:10020000D0E0BE0182E155DFBB24B394AA24A394BD
:10021000B49969C0B4995FC084E616DF882309F4F5
:100220005AC087E311DF833208F455C022DFD82E8D
:1002300020DFC82E1EDF082F1CDF982E8BE004DF86
:10024000833008F448C0892D90E0800F911D8F3FC6
:1002500091050CF440C02D2D30E08C2D90E0A901CB
:10026000480F591F4F3F510521F0982F8827282B01
:10027000392B2A31310579F5033079F028F4013032
:1002800041F0023091F027C00430B1F00530D1F0D8
:1002900022C01E3101F11F5F03C01123E1F0115094
:1002A000612F70E086E005DF16C02196EC16FD0692
:1002B00030F4C1E0D0E003C0219709F4E701BE01AA
:1002C00082E1F1CF60E070E0BB2011F08DE001C071
:1002D0008EE0EFDEBA24612F81E090E028D0BE01ED
:1002E00082E090E035D0809173008A3009F090CFA1
:1002F0001092730080916B008D3309F089CF2196A5
:10030000EC16FD0610F4C1E0D0E0BE0182E1D1DEC2
:10031000BE0182E090E01CD07BCFE199FECF8EBB86
:10032000E09A99278DB30895A8E142E017C0262FDF
:10033000E199FECF8EBBE09A81500DB2021639F0E2
:100340001CBA2DBB0FB6F894E29AE19A0FBE08953D
:100350000196272FEDDFEBCFA82F862FE82FE1990D
:10036000FECF05C0EEBBE09AE3950DB20D92415071
:08037000C8F70895F894FFCFCF
:080378007EFF0600010000EF0A
:00000001FF
