:1000000010C028C0A0C026C025C024C023C022C064
:1000100021C020C065C170C167C17BC194C171C1DD
:100020007DC111241FBECFE9CDBF10E0A0E6B0E036
:10003000E8EDF3E002C005900D92A836B107D9F7BC
:1000400020E0A8E6B0E001C01D92A437B207E1F7B6
:10005000B7D0C0C1D5CF982F26B3207180E030E053
:1000600046B3407150E04217530749F4981730F0F7
:1000700043E24A95F1F700C08F5FF2CF80E0089528
:100080000F931F93CF93DF93D8E00C2F10E01595BB
:100090000795C02F8BE0DFDF833010F48FEF0BC0AC
:1000A00085E1D9DF8330D0F38C3010F0C02FC068E9
:1000B000D15059F78C2FDF91CF911F910F91089557
:1000C000809363007093650060936600E0E6F0E063
:1000D0009191F894C29827E22A95F1F700C088E040
:1000E00090FF03C00000C29A02C0C29800C026E27E
:1000F0002A95F1F79695815099F700C000C0C29AF1
:1001000087E28A95F1F7789420E0E836F20701F764
:10011000809173008A30E0F31092730080916B003D
:100120008034A1F2089560E070E0CADF809173002E
:100130008A30E0F31092730020916D0080916E0080
:1001400090E0922B08951F920F920FB60F921124F8
:100150002F933F934F938F939F93EF93FF93B39975
:1001600023C04BE04A95F1F700C038E0822F90E0C1
:1001700095958795282F46E24A95F1F70000B399A7
:100180002068315099F7E091730081E08E0F8093E1
:100190007300F0E0E859FF4F2083809173008B30AB
:1001A00018F08AE080937300FF91EF919F918F91F7
:1001B0004F913F912F910F900FBE0F901F90189568
:1001C00080E888B987E084BB83E085BD789481E0CE
:1001D00090E0E8D0182F82E090E0E4D0C82F83E0D0
:1001E00090E0E0D0D82F1F3108F01AE0C11101C013
:1001F000C1E0D11101C0D1E0C49AC29ABA9A8BB7BA
:1002000080628BBFAB9A809173008A30E0F31092CA
:100210007300612F70E086E053DF8FE484DFD82E17
:100220008D1710F4D1E0C1E0AD2EB12CBA2CAA2468
:10023000B50161608FE044DF8FE295E70197F1F748
:1002400000C000008EE46FDFF82E8C1708F4C1E0C8
:10025000B5016C2B8FE034DFEE24E394CC24C394FF
:10026000B49986C0B49978C084E6F5DE882309F491
:1002700073C087E3F0DE833208F46EC001DFB82E6E
:10028000FFDEA82EFDDE082FFBDE982E8BE0E3DEDE
:10029000833008F461C0892D90E0800F911D8F3F5D
:1002A00091050CF459C02B2D30E08A2D90E0A90166
:1002B000480F591F4F3F510521F0982F8827282BB1
:1002C000392B2A31310509F047C0802F90E0FC011D
:1002D0003197E730F10508F03FC0E65FFF4F099422
:1002E0001E31D1F11F5F03C01123B1F11150612FF5
:1002F00070E086E0E5DE30C0CF5FFC1628F4C1E098
:1003000003C0C15009F4CF2D6C2F70E07D2B8FE01E
:10031000F1CFDF5FDD1628F4D1E003C0D15009F43E
:10032000DD2D6D2F70E0762F662761608FE0C8DECF
:100330008FE295E70197F1F700C000008EE4F3DE4D
:10034000F82EC1E009C060E070E0EE2011F08DE011
:1003500001C08EE0B5DEEC24612F81E090E029D071
:100360006C2F82E090E025D06D2F83E090E021D0CB
:10037000809173008A3009F073CF109273008091DE
:100380006B008D3309F06CCFCF5FFC1608F4C1E031
:100390006C2F70E07D2B8FE093DE6C2F82E090E07D
:1003A00008D05ECFE199FECF8EBBE09A99278DB33E
:1003B0000895262FE199FECF8EBBE09A81500DB2B1
:1003C000021639F01CBA2DBB0FB6F894E29AE19AE6
:0803D0000FBE0895F894FFCF61
:0803D8007EFF0600010000EFAA
:00000001FF
